:0C02D700010A0001090A010B01010800E6
:10026B0012000E1202E41202BFE50B6401702BE5C3
:10027B000A7003120311E50A640170031202EDE523
:10028B000A640270031202F6E50A64037003120299
:10029B00FFE50A64047003120308E50B64027006A1
:1002AB007509141200D6E50B640370BD75090F12A6
:0402BB00002080B5EA
:03000B0002020EE0
:10020E00C0E0C0F0C083C082C0D075D000C000C0B6
:0D021E0001C002C003C004C005C006C00737
:10022B00758AA4758CFF0508C3E5089464748094E3
:10023B00804003750800E508C39509500512033586
:05024B00800312033ADC
:10025000D007D006D005D004D003D002D001D00002
:0B026000D0D0D082D083D0F0D0E032AC
:03002300020026B2
:10002600C0E0C0F0C083C082C0D075D000C000C0A0
:0D00360001C002C003C004C005C006C00721
:10004300750C00309872E59924D0F50C2430FF121A
:100053000003E50CB40B00505D900063F82828738F
:1000630002008402008902008E02009302009802BB
:10007300009D0200A20200A70200AC0200B1020030
:10008300B6750A008030750A01802B750A02802636
:10009300750A038021750A04801C7509148017757D
:1000A300093C8012750964800D750B018008750B7E
:0800B300028003750B03C298E3
:1000BB00D007D006D005D004D003D002D001D00099
:0B00CB00D0D0D082D083D0F0D0E03243
:1002BF00438780759850758921758BFA758DFAC2B1
:0802CF00ABD28ED2ACD2AF22FB
:080003008F993099FDC299228A
:0902E400C2B7C2B6C2B5C2B42211
:0902ED00C2B7D2B6C2B5D2B422E8
:0902F600D2B7C2B6D2B5C2B422DF
:0902FF00C2B7C2B6C2B5D2B422E6
:09030800C2B5C2B4C2B7D2B622DC
:09031100C2B7C2B6C2B5C2B422E3
:05033500D293D29222D8
:05033A00C293C29222F3
:09031A00D2B7C2B6C2B5D2B422BA
:09032300D2B5C2B4C2B7D2B622B1
:10000E00758921758AA4758CFFC28DD28CD2A9D226
:02001E00AF220F
:08032C007F5A7EA3DEFEDFFC18
:0103340022A6
:1000D60020A32A20A22720A02420A121E50D146018
:1000E6000F146011146013240370121202ED800DB8
:1000F6001202FF8008120308800312031120A30FC7
:1001060020A20C30A00920A10612031AE4F50D2046
:10011600A30F20A20C20A00930A1061202FF750D24
:100126000120A30F20A20C30A00930A1061202FF65
:10013600750D0120A30F30A20C20A00920A10612E4
:100146000323E4F50D30A30F20A20C20A00920A163
:1001560006120308750D0230A30F30A20C20A00969
:1001660020A106120308750D0230A30F30A20C3031
:0B017600A00930A106120311750D0353
:01018100225B
:0100200022BD
:0300000002018278
:0C018200787FE4F6D8FD75810D0201C9FC
:10018E0002026BE493A3F8E493A34003F68001F21A
:10019E0008DFF48029E493A3F85407240CC8C33372
:1001AE00C4540F4420C8834004F456800146F6DF41
:1001BE00E4800B01020408102040809002D7E47EF8
:1001CE00019360BCA3FF543F30E509541FFEE49336
:1001DE00A360010ECF54C025E060A840B8E493A3FD
:1001EE00FAE493A3F8E493A3C8C582C8CAC583CA28
:1001FE00F0A3C8C582C8CAC583CADFE9DEE780BEE0
:0102E300001A
:00000001FF
