:0C02AD00010A0001090A010B0101080010
:1002440012000E1202BA120295E50B6401702BE53E
:100254000A70031202E7E50A640170031202C3E59F
:100264000A640270031202CCE50A640370031202EA
:10027400D5E50A640470031202DEE50B640270061D
:10028400750914120162E50B640370BD75091480CD
:01029400B8B1
:03000B000201E708
:1001E700C0E0C0F0C083C082C0D075D000C000C0DE
:0D01F70001C002C003C004C005C006C0075F
:10020400758AA4758CFF0508C3E50894647480940A
:10021400804003750800E508C395095005120302E0
:05022400800312030736
:10022900D007D006D005D004D003D002D001D00029
:0B023900D0D0D082D083D0F0D0E032D3
:03002300020026B2
:10002600C0E0C0F0C083C082C0D075D000C000C0A0
:0D00360001C002C003C004C005C006C00721
:10004300750C00309872E59924D0F50C2430FF121A
:100053000003E50CB40B00505D900063F82828738F
:1000630002008402008902008E02009302009802BB
:10007300009D0200A20200A70200AC0200B1020030
:10008300B6750A008030750A01802B750A02802636
:10009300750A038021750A04801C7509148017757D
:1000A300093C8012750964800D750B018008750B7E
:0800B300028003750B03C298E3
:1000BB00D007D006D005D004D003D002D001D00099
:0B00CB00D0D0D082D083D0F0D0E03243
:10029500438780759850758921758BFA758DFAC2DB
:0802A500ABD28ED2ACD2AF2225
:080003008F993099FDC299228A
:0902BA00C2B7C2B6C2B5C2B4223B
:0902C300C2B7D2B6C2B5D2B42212
:0902CC00D2B7C2B6D2B5C2B42209
:0902D500C2B7C2B6C2B5D2B42210
:0902DE00C2B5C2B4C2B7D2B62207
:0902E700C2B7C2B6C2B5C2B4220E
:05030200D293D292220B
:05030700C293C2922226
:0902F000D2B7C2B6C2B5D2B422E5
:0902F900D2B5C2B4C2B7D2B622DC
:10000E00758921758AA4758CFFC28DD28CD2A9D226
:02001E00AF220F
:1001620020A30C20A20920A00620A1031202C32072
:10017200A30C20A20930A00620A1031202F020A3A2
:100182000F20A20C20A00930A1061202F01202F0E8
:1001920020A30F20A20C30A00930A1061202F012F7
:1001A20002F020A30C30A20920A00620A103120213
:1001B200F930A30F20A20C20A00920A1061202F9F7
:1001C2001202F930A30F30A20C20A00920A10612BE
:1001D20002F91202F930A30C30A20930A00630A1B4
:0501E200031202E722F8
:030000000200D625
:0C00D600787FE4F6D8FD75810C02011D56
:1000E200020244E493A3F8E493A34003F68001F2EE
:1000F20008DFF48029E493A3F85407240CC8C3331F
:10010200C4540F4420C8834004F456800146F6DFED
:10011200E4800B01020408102040809002ADE47ECE
:10012200019360BCA3FF543F30E509541FFEE493E2
:10013200A360010ECF54C025E060A840B8E493A3A9
:10014200FAE493A3F8E493A3C8C582C8CAC583CAD4
:10015200F0A3C8C582C8CAC583CADFE9DEE780BE8C
:0102B9000044
:00000001FF
